{
  "_format": "hh-sol-artifact-1",
  "contractName": "EventTicket",
  "sourceName": "contracts/EventTicket.sol",
  "abi": [
    {
      "inputs": [
        {
          "internalType": "address",
          "name": "_nftContractAddress",
          "type": "address"
        }
      ],
      "stateMutability": "nonpayable",
      "type": "constructor"
    },
    {
      "inputs": [
        {
          "internalType": "uint256",
          "name": "_eventId",
          "type": "uint256"
        }
      ],
      "name": "cancelEvent",
      "outputs": [],
      "stateMutability": "nonpayable",
      "type": "function"
    },
    {
      "inputs": [],
      "name": "checkNFTOwnership",
      "outputs": [],
      "stateMutability": "nonpayable",
      "type": "function"
    },
    {
      "inputs": [
        {
          "internalType": "string",
          "name": "_name",
          "type": "string"
        },
        {
          "internalType": "string",
          "name": "_description",
          "type": "string"
        }
      ],
      "name": "createEvent",
      "outputs": [],
      "stateMutability": "nonpayable",
      "type": "function"
    },
    {
      "inputs": [],
      "name": "eventCount",
      "outputs": [
        {
          "internalType": "uint256",
          "name": "",
          "type": "uint256"
        }
      ],
      "stateMutability": "view",
      "type": "function"
    },
    {
      "inputs": [
        {
          "internalType": "uint256",
          "name": "",
          "type": "uint256"
        }
      ],
      "name": "events",
      "outputs": [
        {
          "internalType": "uint256",
          "name": "id",
          "type": "uint256"
        },
        {
          "internalType": "string",
          "name": "name",
          "type": "string"
        },
        {
          "internalType": "string",
          "name": "description",
          "type": "string"
        },
        {
          "internalType": "uint256",
          "name": "timestamp",
          "type": "uint256"
        },
        {
          "internalType": "address",
          "name": "creator",
          "type": "address"
        },
        {
          "internalType": "bool",
          "name": "canceled",
          "type": "bool"
        }
      ],
      "stateMutability": "view",
      "type": "function"
    },
    {
      "inputs": [
        {
          "internalType": "address",
          "name": "",
          "type": "address"
        }
      ],
      "name": "isNFTOwner",
      "outputs": [
        {
          "internalType": "bool",
          "name": "",
          "type": "bool"
        }
      ],
      "stateMutability": "view",
      "type": "function"
    },
    {
      "inputs": [],
      "name": "nftContractAddress",
      "outputs": [
        {
          "internalType": "address",
          "name": "",
          "type": "address"
        }
      ],
      "stateMutability": "view",
      "type": "function"
    },
    {
      "inputs": [
        {
          "internalType": "uint256",
          "name": "_eventId",
          "type": "uint256"
        }
      ],
      "name": "registerEvent",
      "outputs": [],
      "stateMutability": "view",
      "type": "function"
    },
    {
      "inputs": [
        {
          "internalType": "uint256",
          "name": "_eventId",
          "type": "uint256"
        },
        {
          "internalType": "string",
          "name": "_name",
          "type": "string"
        },
        {
          "internalType": "string",
          "name": "_description",
          "type": "string"
        }
      ],
      "name": "updateEvent",
      "outputs": [],
      "stateMutability": "nonpayable",
      "type": "function"
    }
  ],
  "bytecode": "0x60806040523480156200001157600080fd5b50604051620018e5380380620018e58339818101604052810190620000379190620000e8565b806000806101000a81548173ffffffffffffffffffffffffffffffffffffffff021916908373ffffffffffffffffffffffffffffffffffffffff160217905550506200011a565b600080fd5b600073ffffffffffffffffffffffffffffffffffffffff82169050919050565b6000620000b08262000083565b9050919050565b620000c281620000a3565b8114620000ce57600080fd5b50565b600081519050620000e281620000b7565b92915050565b6000602082840312156200010157620001006200007e565b5b60006200011184828501620000d1565b91505092915050565b6117bb806200012a6000396000f3fe608060405234801561001057600080fd5b50600436106100935760003560e01c80633f69babd116100665780633f69babd14610123578063699280c21461013f57806371be2e4a1461015b578063aae282e114610179578063e257a94c1461019757610093565b80630b791430146100985780630caa87b2146100cd578063207e110c146100fd5780632e5aede414610119575b600080fd5b6100b260048036038101906100ad9190610b11565b6101b3565b6040516100c496959493929190610c39565b60405180910390f35b6100e760048036038101906100e29190610cd4565b61032c565b6040516100f49190610d01565b60405180910390f35b61011760048036038101906101129190610b11565b61034c565b005b61012161043f565b005b61013d60048036038101906101389190610b11565b6105ca565b005b61015960048036038101906101549190610e51565b61072c565b005b6101636108a9565b6040516101709190610edc565b60405180910390f35b6101816108af565b60405161018e9190610ef7565b60405180910390f35b6101b160048036038101906101ac9190610f12565b6108d3565b005b60026020528060005260406000206000915090508060000154908060010180546101dc90610fb9565b80601f016020809104026020016040519081016040528092919081815260200182805461020890610fb9565b80156102555780601f1061022a57610100808354040283529160200191610255565b820191906000526020600020905b81548152906001019060200180831161023857829003601f168201915b50505050509080600201805461026a90610fb9565b80601f016020809104026020016040519081016040528092919081815260200182805461029690610fb9565b80156102e35780601f106102b8576101008083540402835291602001916102e3565b820191906000526020600020905b8154815290600101906020018083116102c657829003601f168201915b5050505050908060030154908060040160009054906101000a900473ffffffffffffffffffffffffffffffffffffffff16908060040160149054906101000a900460ff16905086565b60036020528060005260406000206000915054906101000a900460ff1681565b600360003373ffffffffffffffffffffffffffffffffffffffff1673ffffffffffffffffffffffffffffffffffffffff16815260200190815260200160002060009054906101000a900460ff166103d8576040517f08c379a00000000000000000000000000000000000000000000000000000000081526004016103cf9061105c565b60405180910390fd5b6002600082815260200190815260200160002060040160149054906101000a900460ff161561043c576040517f08c379a0000000000000000000000000000000000000000000000000000000008152600401610433906110c8565b60405180910390fd5b50565b600073ffffffffffffffffffffffffffffffffffffffff1660008054906101000a900473ffffffffffffffffffffffffffffffffffffffff1673ffffffffffffffffffffffffffffffffffffffff16036104ce576040517f08c379a00000000000000000000000000000000000000000000000000000000081526004016104c590611134565b60405180910390fd5b60008060009054906101000a900473ffffffffffffffffffffffffffffffffffffffff1673ffffffffffffffffffffffffffffffffffffffff166370a08231336040518263ffffffff1660e01b815260040161052a9190610ef7565b602060405180830381865afa158015610547573d6000803e3d6000fd5b505050506040513d601f19601f8201168201806040525081019061056b9190611169565b905060008111600360003373ffffffffffffffffffffffffffffffffffffffff1673ffffffffffffffffffffffffffffffffffffffff16815260200190815260200160002060006101000a81548160ff02191690831515021790555050565b600360003373ffffffffffffffffffffffffffffffffffffffff1673ffffffffffffffffffffffffffffffffffffffff16815260200190815260200160002060009054906101000a900460ff16610656576040517f08c379a000000000000000000000000000000000000000000000000000000000815260040161064d90611208565b60405180910390fd5b3373ffffffffffffffffffffffffffffffffffffffff166002600083815260200190815260200160002060040160009054906101000a900473ffffffffffffffffffffffffffffffffffffffff1673ffffffffffffffffffffffffffffffffffffffff16146106fa576040517f08c379a00000000000000000000000000000000000000000000000000000000081526004016106f190611274565b60405180910390fd5b60016002600083815260200190815260200160002060040160146101000a81548160ff02191690831515021790555050565b600360003373ffffffffffffffffffffffffffffffffffffffff1673ffffffffffffffffffffffffffffffffffffffff16815260200190815260200160002060009054906101000a900460ff166107b8576040517f08c379a00000000000000000000000000000000000000000000000000000000081526004016107af90611306565b60405180910390fd5b3373ffffffffffffffffffffffffffffffffffffffff166002600085815260200190815260200160002060040160009054906101000a900473ffffffffffffffffffffffffffffffffffffffff1673ffffffffffffffffffffffffffffffffffffffff161461085c576040517f08c379a000000000000000000000000000000000000000000000000000000000815260040161085390611372565b60405180910390fd5b8160026000858152602001908152602001600020600101908161087f919061153e565b50806002600085815260200190815260200160002060020190816108a3919061153e565b50505050565b60015481565b60008054906101000a900473ffffffffffffffffffffffffffffffffffffffff1681565b600360003373ffffffffffffffffffffffffffffffffffffffff1673ffffffffffffffffffffffffffffffffffffffff16815260200190815260200160002060009054906101000a900460ff1661095f576040517f08c379a000000000000000000000000000000000000000000000000000000000815260040161095690611682565b60405180910390fd5b600a600154106109a4576040517f08c379a000000000000000000000000000000000000000000000000000000000815260040161099b906116ee565b60405180910390fd5b600160008154809291906109b79061173d565b91905055506040518060c0016040528060015481526020018381526020018281526020014281526020013373ffffffffffffffffffffffffffffffffffffffff16815260200160001515815250600260006001548152602001908152602001600020600082015181600001556020820151816001019081610a38919061153e565b506040820151816002019081610a4e919061153e565b506060820151816003015560808201518160040160006101000a81548173ffffffffffffffffffffffffffffffffffffffff021916908373ffffffffffffffffffffffffffffffffffffffff16021790555060a08201518160040160146101000a81548160ff0219169083151502179055509050505050565b6000604051905090565b600080fd5b600080fd5b6000819050919050565b610aee81610adb565b8114610af957600080fd5b50565b600081359050610b0b81610ae5565b92915050565b600060208284031215610b2757610b26610ad1565b5b6000610b3584828501610afc565b91505092915050565b610b4781610adb565b82525050565b600081519050919050565b600082825260208201905092915050565b60005b83811015610b87578082015181840152602081019050610b6c565b60008484015250505050565b6000601f19601f8301169050919050565b6000610baf82610b4d565b610bb98185610b58565b9350610bc9818560208601610b69565b610bd281610b93565b840191505092915050565b600073ffffffffffffffffffffffffffffffffffffffff82169050919050565b6000610c0882610bdd565b9050919050565b610c1881610bfd565b82525050565b60008115159050919050565b610c3381610c1e565b82525050565b600060c082019050610c4e6000830189610b3e565b8181036020830152610c608188610ba4565b90508181036040830152610c748187610ba4565b9050610c836060830186610b3e565b610c906080830185610c0f565b610c9d60a0830184610c2a565b979650505050505050565b610cb181610bfd565b8114610cbc57600080fd5b50565b600081359050610cce81610ca8565b92915050565b600060208284031215610cea57610ce9610ad1565b5b6000610cf884828501610cbf565b91505092915050565b6000602082019050610d166000830184610c2a565b92915050565b600080fd5b600080fd5b7f4e487b7100000000000000000000000000000000000000000000000000000000600052604160045260246000fd5b610d5e82610b93565b810181811067ffffffffffffffff82111715610d7d57610d7c610d26565b5b80604052505050565b6000610d90610ac7565b9050610d9c8282610d55565b919050565b600067ffffffffffffffff821115610dbc57610dbb610d26565b5b610dc582610b93565b9050602081019050919050565b82818337600083830152505050565b6000610df4610def84610da1565b610d86565b905082815260208101848484011115610e1057610e0f610d21565b5b610e1b848285610dd2565b509392505050565b600082601f830112610e3857610e37610d1c565b5b8135610e48848260208601610de1565b91505092915050565b600080600060608486031215610e6a57610e69610ad1565b5b6000610e7886828701610afc565b935050602084013567ffffffffffffffff811115610e9957610e98610ad6565b5b610ea586828701610e23565b925050604084013567ffffffffffffffff811115610ec657610ec5610ad6565b5b610ed286828701610e23565b9150509250925092565b6000602082019050610ef16000830184610b3e565b92915050565b6000602082019050610f0c6000830184610c0f565b92915050565b60008060408385031215610f2957610f28610ad1565b5b600083013567ffffffffffffffff811115610f4757610f46610ad6565b5b610f5385828601610e23565b925050602083013567ffffffffffffffff811115610f7457610f73610ad6565b5b610f8085828601610e23565b9150509250929050565b7f4e487b7100000000000000000000000000000000000000000000000000000000600052602260045260246000fd5b60006002820490506001821680610fd157607f821691505b602082108103610fe457610fe3610f8a565b5b50919050565b7f4f6e6c79204e4654206f776e6572732063616e20726567697374657220666f7260008201527f206576656e740000000000000000000000000000000000000000000000000000602082015250565b6000611046602683610b58565b915061105182610fea565b604082019050919050565b6000602082019050818103600083015261107581611039565b9050919050565b7f4576656e742069732063616e63656c6564000000000000000000000000000000600082015250565b60006110b2601183610b58565b91506110bd8261107c565b602082019050919050565b600060208201905081810360008301526110e1816110a5565b9050919050565b7f4e465420636f6e74726163742061646472657373206e6f742073657400000000600082015250565b600061111e601c83610b58565b9150611129826110e8565b602082019050919050565b6000602082019050818103600083015261114d81611111565b9050919050565b60008151905061116381610ae5565b92915050565b60006020828403121561117f5761117e610ad1565b5b600061118d84828501611154565b91505092915050565b7f4f6e6c79206576656e742063726561746f72732063616e2063616e63656c206560008201527f76656e7400000000000000000000000000000000000000000000000000000000602082015250565b60006111f2602483610b58565b91506111fd82611196565b604082019050919050565b60006020820190508181036000830152611221816111e5565b9050919050565b7f4f6e6c79206576656e742063726561746f722063616e2063616e63656c000000600082015250565b600061125e601d83610b58565b915061126982611228565b602082019050919050565b6000602082019050818103600083015261128d81611251565b9050919050565b7f4f6e6c79206576656e742063726561746f72732063616e20757064617465206560008201527f76656e7400000000000000000000000000000000000000000000000000000000602082015250565b60006112f0602483610b58565b91506112fb82611294565b604082019050919050565b6000602082019050818103600083015261131f816112e3565b9050919050565b7f4f6e6c79206576656e742063726561746f722063616e20757064617465000000600082015250565b600061135c601d83610b58565b915061136782611326565b602082019050919050565b6000602082019050818103600083015261138b8161134f565b9050919050565b60008190508160005260206000209050919050565b60006020601f8301049050919050565b600082821b905092915050565b6000600883026113f47fffffffffffffffffffffffffffffffffffffffffffffffffffffffffffffffff826113b7565b6113fe86836113b7565b95508019841693508086168417925050509392505050565b6000819050919050565b600061143b61143661143184610adb565b611416565b610adb565b9050919050565b6000819050919050565b61145583611420565b61146961146182611442565b8484546113c4565b825550505050565b600090565b61147e611471565b61148981848461144c565b505050565b5b818110156114ad576114a2600082611476565b60018101905061148f565b5050565b601f8211156114f2576114c381611392565b6114cc846113a7565b810160208510156114db578190505b6114ef6114e7856113a7565b83018261148e565b50505b505050565b600082821c905092915050565b6000611515600019846008026114f7565b1980831691505092915050565b600061152e8383611504565b9150826002028217905092915050565b61154782610b4d565b67ffffffffffffffff8111156115605761155f610d26565b5b61156a8254610fb9565b6115758282856114b1565b600060209050601f8311600181146115a85760008415611596578287015190505b6115a08582611522565b865550611608565b601f1984166115b686611392565b60005b828110156115de578489015182556001820191506020850194506020810190506115b9565b868310156115fb57848901516115f7601f891682611504565b8355505b6001600288020188555050505b505050505050565b7f4f6e6c79204e4654206f776e6572732063616e20637265617465206576656e7460008201527f7300000000000000000000000000000000000000000000000000000000000000602082015250565b600061166c602183610b58565b915061167782611610565b604082019050919050565b6000602082019050818103600083015261169b8161165f565b9050919050565b7f4d6178696d756d206576656e74206c696d697420726561636865640000000000600082015250565b60006116d8601b83610b58565b91506116e3826116a2565b602082019050919050565b60006020820190508181036000830152611707816116cb565b9050919050565b7f4e487b7100000000000000000000000000000000000000000000000000000000600052601160045260246000fd5b600061174882610adb565b91507fffffffffffffffffffffffffffffffffffffffffffffffffffffffffffffffff820361177a5761177961170e565b5b60018201905091905056fea2646970667358221220314929603019c497ada8888ad7e4c947ccb0740d0c3edf8e03038ccf1fa714a764736f6c63430008180033",
  "linkReferences": {},
  "deployedLinkReferences": {}
}